:100000000C945E000C9486000C9486000C94860080
:100010000C9486000C9486000C9486000C94860048
:100020000C9486000C9486000C9486000C94F503C6
:100030000C9486000C9486000C9486000C94860028
:100040000C94AB030C9486000C9479030C9453032A
:100050000C9486000C9486000C9486000C94860008
:100060000C9486000C948600000000080002010039
:100070000003040700000000000000000000000072
:10008000250028002B0000000000240027002A0083
:10009000040404040404040402020202020203032E
:1000A0000303030301020408102040800102040836
:1000B0001020010204081020B604CD0611241FBE32
:1000C000CFEFD8E0DEBFCDBF11E0A0E0B1E0E8EABD
:1000D000F3E102C005900D92AA31B107D9F721E0F2
:1000E000AAE1B1E001C01D92A63FB207E1F710E01E
:1000F000CDE5D0E004C02197FE010E94B507CC35C4
:10010000D107C9F70E9427050C94C7090C94000079
:10011000CF92DF92EF92FF92DC01A03282E0B8072B
:100120000CF03EC0B7FD06C0A53BB1052CF0A4EB1A
:10013000B0E002C0A0E0B0E08091F00128E830E03B
:100140006901C81AD10887FDD394CC0CDD1CCC0CF6
:10015000DD1C0D2C000CEE08FF088091F10128E554
:1001600032E0281B310987FD3395220F331F220F00
:10017000331FA901330F660B770B9A01AB012C19C2
:100180003D094E095F090E94390724EB30E040E049
:1001900050E00E940F07C20ED31EE41EF51ED601CA
:1001A0009091EF019C3098F58091F00148E850E083
:1001B000481B510987FD5395440F551F440F551F88
:1001C000A417B5078CF08091F10128E532E0281BD7
:1001D000310987FD3395220F331F220F331FAD01E5
:1001E0002A173B070CF4A90142505109440F551F2F
:1001F0002FB7F894892F90E0FC01EE0FFF1F8E0FB0
:100200009F1FFC01EC53FE4F528341832FBFFF9091
:10021000EF90DF90CF900895CF92DF92EF92FF9210
:100220000F931F93CF93DF936C017A018B01C0E092
:10023000D0E0CE15DF0589F0D8016D918D01D60192
:10024000ED91FC910190F081E02DC6010995892B7B
:1002500011F47E0102C02196ECCFC701DF91CF914E
:100260001F910F91FF90EF90DF90CF900895FC01C8
:10027000918D828D981761F0828DDF01A80FB11DDD
:100280005D968C91928D9F5F9F73928F90E0089501
:100290008FEF9FEF0895FC01918D828D981731F0BB
:1002A000828DE80FF11D858D90E008958FEF9FEF0F
:1002B0000895FC01918D228D892F90E0805C9F4FE5
:1002C000821B91098F739927089587E291E00E941C
:1002D000590121E0892B09F420E0822F0895FC01C7
:1002E000848DDF01A80FB11DA35ABF4F2C91848DBF
:1002F00090E001968F739927848FA689B7892C93F4
:10030000A089B1898C9180648C93938D848D98138E
:1003100006C00288F389E02D80818F7D8083089557
:10032000EF92FF920F931F93CF93DF93EC0181E045
:10033000888F9B8D8C8D981305C0E889F989808101
:1003400085FD24C0F62E0B8D10E00F5F1F4F0F733D
:100350001127E02E8C8DE8120CC00FB607FCFACFE7
:10036000E889F989808185FFF5CFCE010E946F0170
:10037000F1CF8B8DFE01E80FF11DE35AFF4FF082A4
:100380000B8FEA89FB898081806207C0EE89FF8933
:100390006083E889F98980818064808381E090E0CE
:1003A000DF91CF911F910F91FF90EF900895CF9320
:1003B000DF93EC01888D8823C9F0EA89FB8980816D
:1003C00085FD05C0A889B9898C9186FD0FC00FB63F
:1003D00007FCF5CF808185FFF2CFA889B9898C9180
:1003E00085FFEDCFCE010E946F01E7CFDF91CF9166
:1003F000089580E090E0892B29F00E946501811129
:100400000C940000089590E0FC01E859FF4F3491EE
:10041000FC01EC55FF4F2491FC01E057FF4FE491A4
:10042000EE2309F43BC0332339F1333091F038F433
:100430003130A9F0323001F584B58F7D12C03730EC
:1004400091F03830A1F03430B9F4809180008F7D84
:1004500003C0809180008F77809380000DC084B5A9
:100460008F7784BD09C08091B0008F7703C08091E1
:10047000B0008F7D8093B000F0E0EE0FFF1FE458D6
:10048000FF4FA591B4918FB7F894EC91611103C01F
:1004900020952E2301C02E2B2C938FBF08953FB79C
:1004A000F8948091200190912101A0912201B091B6
:1004B000230126B5A89B05C02F3F19F00196A11D69
:1004C000B11D3FBFBA2FA92F982F8827820F911DEA
:1004D000A11DB11DBC01CD0142E0660F771F881F31
:1004E000991F4A95D1F708958F929F92AF92BF922C
:1004F000CF92DF92EF92FF926B017C010E944F023C
:100500004B015C01C114D104E104F104F1F00E943B
:100510004F02DC01CB0188199909AA09BB09883E61
:100520009340A105B10570F321E0C21AD108E1089A
:10053000F10888EE880E83E0981EA11CB11CC1143E
:10054000D104E104F10419F7DDCFFF90EF90DF90C3
:10055000CF90BF90AF909F908F9008958F929F9271
:10056000AF92BF920F931F93CF93DF93CDB7DEB7B8
:10057000A1970FB6F894DEBF0FBECDBF19A24230CF
:1005800008F44AE08E010F5D1F4F842E912CA12CA0
:10059000B12CA50194010E947807E62FB901CA0188
:1005A00001501109EA3014F4E05D01C0E95CD801A2
:1005B000EC93232B242B252B61F70115110571F0EA
:1005C000F80101900020E9F73197AF01401B510B72
:1005D000B80187E291E00E940C0102C080E090E047
:1005E000A1960FB6F894DEBF0FBECDBFDF91CF91BD
:1005F0001F910F91BF90AF909F908F9008950E9490
:10060000B2090F931F93CF93DF93EC0188819981F7
:10061000009729F02A813B812617370788F48B0140
:100620006F5F7F4F0E94E808009761F0998388838D
:100630001B830A832C813D81232B11F4FC01108242
:1006400081E001C080E0DF91CF911F910F9108956B
:10065000EF92FF920F931F93CF93DF93EC017B01F7
:100660008A01BA010E9401032881398181110DC0DC
:100670002115310519F0C9010E945008198218820C
:100680001D821C821B821A8206C01D830C83B70147
:10069000C9010E94C009CE01DF91CF911F910F9136
:1006A000FF90EF9008951F920F920FB60F921124B2
:1006B0002F933F934F935F936F937F938F939F936A
:1006C000AF93BF93EF93FF9387E291E00E946F0196
:1006D000FF91EF91BF91AF919F918F917F916F911A
:1006E0005F914F913F912F910F900FBE0F901F90F0
:1006F00018951F920F920FB60F9211242F938F937C
:100700009F93EF93FF93E0913701F091380180813F
:10071000E0913D01F0913E0182FD12C090818091F7
:1007200040018F5F8F7320914101821751F0E0915A
:100730004001F0E0E95DFE4F958F8093400101C0DC
:100740008081FF91EF919F918F912F910F900FBE1C
:100750000F901F9018951F920F920FB60F921124B1
:100760002F933F938F939F93AF93BF9380911C01DF
:1007700090911D01A0911E01B0911F0130911B01AC
:1007800023E0230F2D3720F40196A11DB11D05C0D4
:1007900026E8230F0296A11DB11D20931B01809313
:1007A0001C0190931D01A0931E01B0931F01809125
:1007B000200190912101A0912201B0912301019685
:1007C000A11DB11D8093200190932101A0932201CE
:1007D000B0932301BF91AF919F918F913F912F9142
:1007E0000F900FBE0F901F9018951F920F920FB68B
:1007F0000F9211242F933F934F935F936F937F93A7
:100800008F939F93AF93BF93EF93FF9380911A01C0
:1008100087FF05C010928500109284001BC02091B4
:100820001A01022E000C330B8091E80190E028178A
:10083000390784F480911A01082E000C990BFC01F1
:10084000EE0FFF1F8E0F9F1FFC01EC53FE4F8081A8
:1008500086FD15C080911A018F5F80931A01209147
:100860001A01022E000C330B8091E80190E028174A
:100870003907C4F480911A018C3064F113C080915F
:100880001A01082E000C990BFC01EE0FFF1F8E0FB2
:100890009F1FFC01EC53FE4F808160E08F730E942C
:1008A0000302D8CF80918400909185000496803413
:1008B0009C4918F480E49CE905C0809184009091E3
:1008C0008500049690938900809388008FEF809331
:1008D0001A013BC0209184003091850080911A015B
:1008E000082E000C990BFC01EE0FFF1F8E0F9F1FAF
:1008F000FC01EC53FE4F81819281820F931F9093F4
:1009000089008093880080911A01082E000C990BB1
:10091000FC01EE0FFF1F8E0F9F1FFC01EC53FE4FDB
:10092000808186FF12C080911A01082E000C990B5D
:10093000FC01EE0FFF1F8E0F9F1FFC01EC53FE4FBB
:10094000808161E08F730E940302FF91EF91BF915C
:10095000AF919F918F917F916F915F914F913F9157
:100960002F910F900FBE0F901F90189510922A0193
:100970001092290188EE93E0A0E0B0E080932B0173
:1009800090932C01A0932D01B0932E018AE091E069
:10099000909328018093270185EC90E09093340197
:1009A0008093330184EC90E090933601809335017D
:1009B00080EC90E0909338018093370181EC90E0D7
:1009C00090933A018093390182EC90E090933C013E
:1009D00080933B0186EC90E090933E0180933D0133
:1009E0001092400110924101109242011092430175
:1009F0008091E8018C30A0F491E0980F9093E80189
:100A00008093EF0190E0FC01EE0FFF1F8E0F9F1F00
:100A1000FC01EC53FE4F88EB9BE09283818303C083
:100A20008FEF8093EF011092EA011092E90110928A
:100A3000EC011092EB011092EE011092ED0140E0FA
:100A400050E068E171E089EE91E00C942803CF93C7
:100A5000DF9300D0CDB7DEB7789484B5826084BDD3
:100A600084B5816084BD85B5826085BD85B58160B2
:100A700085BD80916E00816080936E001092810030
:100A800080918100826080938100809181008160EB
:100A900080938100809180008160809380008091AC
:100AA000B10084608093B1008091B0008160809338
:100AB000B00080917A00846080937A0080917A00FF
:100AC000826080937A0080917A00816080937A00BE
:100AD00080917A00806880937A001092C100E09142
:100AE0003701F091380182E08083E0913301F09189
:100AF00034011082E0913501F09136018FEC808352
:100B000010923F01E0913B01F0913C0186E080832F
:100B1000E0913901F0913A01808180618083E09118
:100B20003901F0913A01808188608083E091390138
:100B3000F0913A01808180688083E0913901F091E1
:100B40003A0180818F7D80838091EF018C3008F0A5
:100B500068C0EDEAF0E02491E9E9F0E084918823AF
:100B600099F090E0880F991FFC01EA57FF4FA5917B
:100B7000B491FC01E458FF4F859194918FB7F8949C
:100B8000EC91E22BEC938FBF8091EF01E82FF0E026
:100B90009F01220F331FE20FF31FEC53FE4F908192
:100BA000907C996090831092F0011092F1016CE0BA
:100BB0000E94A9079CE0899FB001112440E050E009
:100BC0009A01260F371FF901EE0FFF1F2E0F3F1F4F
:100BD000F901EC53FE4F908196FD16C04F5F5F4FB9
:100BE0004C30510569F781110FC01092800082E0EE
:100BF000809381001092850010928400B19A8091B8
:100C00006F00826080936F00E091EF01F0E0CF0110
:100C1000880F991FE80FF91FEC53FE4F8081806405
:100C200080838AE590E00E94880068EE73E080E0AF
:100C300090E00E94740287E291E00E945901892BA2
:100C4000D1F387E291E00E945901181619067CF54C
:100C500087E291E00E9437018093260189831A82FE
:100C60000091ED011091EE010F5F1F4FB80189EE69
:100C700091E00E940103882399F02091E9013091CD
:100C8000EA018091ED019091EE01BE016F5F7F4F0F
:100C9000820F931F0E94C0091093EE010093ED0193
:100CA0006FE070E080E090E00E947402CACF809113
:100CB000ED019091EE01892BD9F18091E90190919C
:100CC000EA01FC012081222399F1009719F00E948A
:100CD000D30603C060E070E0CB0170932501609300
:100CE00024016B01770FEE08FF08F7FE14C0E091B6
:100CF0002701F09128010190F081E02D6DE287E25B
:100D000091E0099566277727CB016C197D098E093B
:100D10009F094AE003C04AE0C701B6010E94AE0243
:100D200042E050E066E171E087E291E00E940C0150
:100D300040E050E068E171E089EE91E00E94280314
:100D40000AE510E0C8010E9488006FE070E080E0D2
:100D500090E00E947402015011090B33110591F7C4
:100D60006091240170912501072E000C880B990BCE
:100D70000E9474020CE310E0C8010E9488006FE03A
:100D800070E080E090E00E9474020F5F1F4F0B350F
:100D9000110591F70E94F9014ECF8091E9019091E0
:100DA000EA010C9450081F93FC0199278827BC0185
:100DB000E89411911032E9F3193010F01E30C8F3A5
:100DC0001B3251F01D3249F4689406C00E94FA06A5
:100DD000610F711D811D911D119110531A30B0F3D7
:100DE0003EF490958095709561957F4F8F4F9F4F02
:100DF0001F910895592F482F372F262F660F771FE1
:100E0000881F991F660F771F881F991F620F731F16
:100E1000841F951F660F771F881F991F0895052E41
:100E200097FB1EF400940E94260757FD07D00E94EE
:100E3000780707FC03D04EF40C9426075095409594
:100E4000309521953F4F4F4F5F4F08959095809576
:100E5000709561957F4F8F4F9F4F08950E949A071D
:100E6000A59F900DB49F900DA49F800D911D1124FE
:100E70000895B7FF0C942E070E942E07821B930B38
:100E800008952F923F924F925F926F927F928F922E
:100E90009F92AF92BF92CF92DF92EF92FF920F9309
:100EA0001F93CF93DF93CDB7DEB7CA1BDB0B0FB613
:100EB000F894DEBF0FBECDBF09942A8839884888D0
:100EC0005F846E847D848C849B84AA84B984C88466
:100ED000DF80EE80FD800C811B81AA81B981CE0F5D
:100EE000D11D0FB6F894DEBF0FBECDBFED01089542
:100EF000A1E21A2EAA1BBB1BFD010DC0AA1FBB1F1E
:100F0000EE1FFF1FA217B307E407F50720F0A21B8F
:100F1000B30BE40BF50B661F771F881F991F1A94FC
:100F200069F760957095809590959B01AC01BD0126
:100F3000CF010895A29FB001B39FC001A39F700D80
:100F4000811D1124911DB29F700D811D1124911DD1
:100F50000895991B79E004C0991F961708F0961B15
:100F6000881F7A95C9F780950895EE0FFF1F0590A9
:100F7000F491E02D0994CF93DF938230910510F422
:100F800082E090E0E091F401F091F50120E030E0A2
:100F9000C0E0D0E0309711F14081518148175907E6
:100FA000C0F04817590761F482819381209719F0A6
:100FB0009B838A832BC09093F5018093F40126C014
:100FC0002115310519F04217530718F49A01BE0193
:100FD000DF01EF010280F381E02DDCCF2115310527
:100FE00009F1281B390B2430310590F412968D91AC
:100FF0009C9113976115710521F0FB019383828306
:1010000004C09093F5018093F401FD01329644C031
:10101000FD01E20FF31F81939193225031092D932B
:101020003C933AC02091F2013091F301232B41F41B
:1010300020910201309103013093F3012093F201DA
:1010400020910001309101012115310541F42DB7A6
:101050003EB74091040150910501241B350BE091EE
:10106000F201F091F301E217F307A0F42E1B3F0BFE
:101070002817390778F0AC014E5F5F4F241735070A
:1010800048F04E0F5F1F5093F3014093F20181939C
:10109000919302C0E0E0F0E0CF01DF91CF9108959D
:1010A0000F931F93CF93DF93009709F48CC0FC013B
:1010B0003297138212820091F4011091F50101150B
:1010C000110581F420813181820F931F2091F2015B
:1010D0003091F3012817390779F5F093F301E09384
:1010E000F20171C0D80140E050E0AE17BF0750F4E4
:1010F00012962D913C911397AD012115310509F1FF
:10110000D901F3CF9D01DA0133832283608171819C
:10111000860F971F8217930769F4EC0128813981A4
:10112000260F371F2E5F3F4F318320838A819B819B
:1011300093838283452B29F4F093F501E093F40126
:1011400042C01396FC93EE931297ED014991599189
:101150009E01240F351FE217F30771F480819181FE
:10116000840F951F029611969C938E938281938192
:1011700013969C938E931297E0E0F0E0D8011296BC
:101180008D919C911397009719F0F8018C01F6CF7F
:101190008D919C9198012E5F3F4F820F931F20915C
:1011A000F2013091F3012817390769F4309729F4D7
:1011B0001092F5011092F40102C013821282109372
:1011C000F3010093F201DF91CF911F910F910895E8
:1011D000A0E0B0E0EEEEF8E00C944507EC010097DB
:1011E00021F4CB010E94BB07B8C0FC01E60FF71F3A
:1011F0009C0122503109E217F30708F4ACC0D90171
:101200000D911C91119706171707B0F005301105C5
:1012100008F49FC0C80104978617970708F499C07F
:1012200002501109061B170B019311936D937C93C8
:10123000CF010E9450088DC05B01A01AB10A4C0179
:10124000800E911EA091F401B091F50140E050E0B4
:10125000E12CF12C109709F44AC0A815B905D1F575
:101260006D907C901197630182E0C80ED11CCA1466
:10127000DB0480F1A3014A195B096A0182E0C80E10
:10128000D11C1296BC9012971396AC91B5E0CB1678
:10129000D10440F0B282A38351834083D9016D937E
:1012A0007C930AC00E5F1F4FC301800F911FF9018D
:1012B00091838083EB2DFA2FE114F10431F0D701F3
:1012C0001396FC93EE93129744C0F093F501E093CC
:1012D000F4013FC08D919C9111974817590708F46C
:1012E000AC017D0112960D90BC91A02DB3CF8091E1
:1012F000F2019091F30188159905E1F4461757071B
:10130000C8F48091000190910101009741F48DB7DC
:101310009EB74091040150910501841B950BE8177D
:10132000F907C8F4F093F301E093F201F901718336
:1013300060830FC0CB010E94BB077C01009759F06E
:10134000A801BE010E94B709CE010E945008C70142
:1013500004C0CE0102C080E090E0CDB7DEB7EEE081
:101360000C94610781E090E0F8940C94C709FB01AC
:10137000DC0102C001900D9241505040D8F7089511
:10138000FB01DC0101900D920020E1F7089510E0CF
:10139000CDE5D0E004C0FE010E94B5072196CE3510
:0813A000D107C9F7F894FFCF53
:1013A8000000F60180000000000090010C015901C6
:0A13B80037014B01D7010D0A0000B8
:107E0000112484B714BE81FFF0D085E080938100F7
:107E100082E08093C00088E18093C10086E0809377
:107E2000C20080E18093C4008EE0C9D0259A86E02C
:107E300020E33CEF91E0309385002093840096BBD3
:107E4000B09BFECF1D9AA8958150A9F7CC24DD24C4
:107E500088248394B5E0AB2EA1E19A2EF3E0BF2EE7
:107E6000A2D0813461F49FD0082FAFD0023811F036
:107E7000013811F484E001C083E08DD089C08234E0
:107E800011F484E103C0853419F485E0A6D080C0E4
:107E9000853579F488D0E82EFF2485D0082F10E0AE
:107EA000102F00270E291F29000F111F8ED06801E7
:107EB0006FC0863521F484E090D080E0DECF843638
:107EC00009F040C070D06FD0082F6DD080E0C81688
:107ED00080E7D80618F4F601B7BEE895C0E0D1E017
:107EE00062D089930C17E1F7F0E0CF16F0E7DF06D8
:107EF00018F0F601B7BEE89568D007B600FCFDCFD4
:107F0000A601A0E0B1E02C9130E011968C91119780
:107F100090E0982F8827822B932B1296FA010C0160
:107F200087BEE89511244E5F5F4FF1E0A038BF0790
:107F300051F7F601A7BEE89507B600FCFDCF97BE46
:107F4000E89526C08437B1F42ED02DD0F82E2BD052
:107F50003CD0F601EF2C8F010F5F1F4F84911BD097
:107F6000EA94F801C1F70894C11CD11CFA94CF0C13
:107F7000D11C0EC0853739F428D08EE10CD085E9AC
:107F80000AD08FE07ACF813511F488E018D01DD067
:107F900080E101D065CF982F8091C00085FFFCCF94
:107FA0009093C60008958091C00087FFFCCF809118
:107FB000C00084FD01C0A8958091C6000895E0E648
:107FC000F0E098E1908380830895EDDF803219F02E
:107FD00088E0F5DFFFCF84E1DECF1F93182FE3DFCA
:107FE0001150E9F7F2DF1F91089580E0E8DFEE27F6
:047FF000FF270994CA
:027FFE00040479
:0400000300007E007B
:00000001FF